:020000040000FA
:1000000030150020C5010000CD010000CF01000027
:10001000D1010000D3010000D5010000550000000F
:10002000000000000000000000000000D7010000F8
:10003000D901000000000000DB010000DD0100002C
:10004000AD0B00007D070000B5070000D10A0000DD
:10005000E10A0000F10A0000010B0000DF010000CE
:10006000DF010000DF010000DF010000DF01000010
:10007000DF010000DF010000DF010000DF01000000
:10008000DF010000DF010000DF010000DF010000F0
:10009000DF010000DF010000DF010000DF010000E0
:1000A000DF010000DF010000DF010000DF010000D0
:1000B000DF010000DF010000DF010000DF010000C0
:1000C00000F002F800F05BF814A696E8000CB244C9
:1000D000B344DA4501D100F052F8BAE80F000FA698
:1000E00096E83000A5EB040504EB0607AAEB07042D
:1000F000A7F101074FEA15154FEA3414A4F10104E2
:10010000AC4201D300F03BF813F0010F18BFFB1A0B
:1001100043F0010300F001F8DBE71847182700005F
:1001200038270000103A24BF78C878C1FAD852079F
:1001300024BF30C830C144BF04680C607047000061
:10014000704700000023002400250026103A28BF35
:1001500078C1FBD8520728BF30C148BF0B60704739
:10016000692902F09180642902F08E80732902F0DF
:100170007A81002070471FB51FBD10B510BD02F079
:1001800076F91146FFF7F7FF00F0DCF902F094F979
:1001900003B4FFF7F2FF03BC02F09CF940F2000049
:1001A00047F64001C2F20000C0F27D1101607047C5
:1001B00040F2000047F64001C2F20000C0F27D119B
:1001C000016070470948804709480047FEE7FEE79D
:1001D000FEE7FEE7FEE7FEE7FEE7FEE7FEE7FEE7F7
:1001E00004480549054A064B70470000B10100006C
:1001F000C100000030050020301500203011002023
:100200003011002001460020C4F2100001F022BF8E
:100210000178002908BF704710B5441EC8B2FFF727
:10022000F1FFA17801340029F8D1BDE810407047F2
:1002300040F2FC42C2F2000212681AB180B5904747
:10024000BDE8804040F2B400C2F20000006800281F
:1002500008BF7047FEE700BF40F2FC41C2F2000158
:10026000086070477047000080B542F2FE40C0F25F
:100270000000FFF7CDFF42F21B50C0F20000FFF775
:10028000C7FF42F2EA40C0F20000BDE88040FFF73D
:10029000BFBF00BFB0B540F20854C2F20004204610
:1002A000012100F02FFF204601210F2200F0B0FCB9
:1002B00020460221002200F0ABFC40F21855C2F2A9
:1002C00000052846002100F01DFF284601210F22CD
:1002D00000F09EFC28460221002200F099FC2046F6
:1002E0000221002200F046FD284602210022BDE83E
:1002F000B04000F03FBD00BF2DE9F04F93B040F299
:100300000854C2F20004204601214FF0010A00F017
:10031000F5FC054600F00F0220460221029200F093
:1003200029FD40F22C5742F2495B42F24D5842F20D
:100330002F590026C2F20007C0F2000BC0F20008DD
:10034000C0F2000903AC02E00136042E16D03A6870
:100350000AFA06F101EA050011408842F4D00028AB
:10036000434620464946324608BF5B46CDE9006316
:1003700001F018FF2046FFF74BFFE5E702983860D1
:1003800013B0BDE8F08F00BF70B540F21856C2F24E
:1003900000060C4605463046022100F0AFFC05EB96
:1003A000450107228A40904304F0070202FA01F156
:1003B00040EA010230460221BDE8704000F0DABC9C
:1003C00070B5044640F20450C2F20000015D0729F6
:1003D00005D842F2E242C0F20002565C00E000267C
:1003E00040F21855C2F2000506552846022100F0D9
:1003F00085FC04EB440107228A40904306F0070283
:1004000002FA01F141EA000228460221BDE87040EB
:1004100000F0B0BC2DE9F04F91B040F21850C2F29C
:10042000000001214FF0010A00F068FC40F2285260
:1004300040F2045883460027C2F20002C2F20008CC
:10044000002631E042F2E241C0F2000111F80090D2
:1004500040F21854C2F200042046022108F8069027
:1004600000F04CFC0721B940884309F00701B9406E
:1004700041EA00022046022100F07CFC18F8064008
:1004800001AD284613A132463346009401F08AFE9E
:100490002846FFF7BDFE40F22852C2F200020136A4
:1004A000042E07F103070ED00AFA06F010EA0B0F2C
:1004B000F5D011680142F2D118F806000728C1D919
:1004C0004FF00009C4E70BF00F00106011B0BDE859
:1004D000F08F00BF427574746F6E202564207072B7
:1004E00065737365642C20524742204C4544202597
:1004F00064202D3E20636F6C6F722025640D0A000E
:10050000002808BF704781B00A21009101E000BFB8
:1005100000BF009A531E002A0093F9D1013801D080
:100520000091F6E701B0704780B500F0F1FA4EF2A5
:100530008020CEF200004FF0FF31016080BD00BF8F
:10054000704700BF94B000F0E3FA4EF28020CEF284
:1005500000004FF0FF31016042F2FE40C0F20000A7
:10056000FFF756FE42F21B50C0F20000FFF750FEAC
:1005700042F2EA40C0F20000FFF74AFE40F208559E
:10058000C2F20005284601214FF0010B00F0BAFD30
:10059000284601210F2200F03BFB284602210022C1
:1005A00000F036FB40F21854C2F20004204600214D
:1005B00000F0A8FD204601210F2200F029FB204673
:1005C0000221002200F024FB28460221002200F034
:1005D000D1FB20460221002200F0CCFB2BA0FFF72C
:1005E00017FE40F22C5542F24D5942F22F5AC2F2F8
:1005F00000054FF00A08C0F20009C0F2000A04AE7C
:1006000040F20857C2F200073846012100F076FB9D
:10061000044600F00F0238460221039200F0AAFBC4
:10062000002702E00137042F1AD02A680BFA07F1DD
:1006300001EA040011408842F4D0002842F24950F7
:100640004B46C0F2000008BF0346304651463A46CA
:10065000CDE9007301F0A6FD3046FFF7D9FDE1E7D3
:1006600003982860FFF7D6FE4CF25030CDF810808A
:1006700001E000BF00BF04994A1E00290492F9D18D
:100680000138BDD0CDF81080F5E700BF5379737401
:10069000656D2052656164792E0D0A0070B540F2D7
:1006A0002C10C2F20000002100F02CFD08B1012046
:1006B00070BD40F23C10C2F200000121012500F0A3
:1006C00021FD08B1284670BD40F21C10C2F20000A6
:1006D000022100F017FD0028E9D140F22C14C2F2EB
:1006E0000004204601216FF00F0200F091FA20462D
:1006F00002214FF0FF3200F08BFA40F23C16C2F2BA
:1007000000064FF20002CFF6FF723046012100F0E2
:100710007FFA304602214FF0FF3200F079FA40F2C2
:100720001C10C2F2000001210022002500F070FA26
:1007300030460121002200F01DFB2046012100224D
:1007400000F018FB284670BDB0B540F23C14C2F270
:1007500000042046022100F0B1FB40F22C15C2F249
:1007600000052846022100F0A9FB204600F03CFBD2
:100770002846BDE8B04000F037BB00BFB0B582B03E
:1007800040F22C14C2F2000420460221022500F09F
:10079000B5FA0190019A2046012100F0EBFA2046BB
:1007A000032100F0F9FB4EF28020CEF2000005603C
:1007B00002B0B0BD10B582B040F23C10C2F20000F1
:1007C000022100F09BFAB0B340F23C14C2F20004E4
:1007D0002046022100F092FA0190204601210124D6
:1007E00000F08CFA00900198C0070BD101988007A7
:1007F0000AD4019840070AD401984FF400744FF4CA
:10080000606007E0072005E00824382002E040246B
:100810004FF4E0700099009A01402144014022EA1F
:10082000000008440090009A40F23C10C2F2000020
:10083000012100F09FFA40F23C10C2F200000321B7
:1008400000F0AAFB4EF28020CEF2000004210160ED
:1008500002B010BD024640F21C10C2F2000001219D
:1008600000F088BA10B582B040F22C14C2F2000435
:100870002046022100F042FA019001980121421C19
:10088000204602B0BDE8104000F074BAB0B540F2A6
:100890004C15C2F2000528460021002401F0DAF8C8
:1008A00000281CBF0120B0BD284600F00FFD2846DF
:1008B00000F050FDA8690121C461284600F00AFF3C
:1008C0002046B0BD40F24C10C2F200008069002109
:1008D000C1617047B0B540F24C14C2F20004A06987
:1008E00040F2A825016EC2F2000541F00401016644
:1008F00006202870204629460022012300F0C0FD72
:100900004FF6057C40F2A812C2F2000220462946AA
:100910000223A5F800C0BDE8B04000F0B1BD00BFA3
:10092000F0B581B00C4640F24C11C2F20001896969
:100930000546086E1646A4F1FD0212F1FC0F40F0C8
:100940000400086602D2012001B0F0BD40F2A827E1
:10095000C2F200070620387040F24C10C2F20000CC
:1009600039460022012300F08BFD02203870300C44
:100970007870300AB870FE7044B1F81C691E2246C7
:1009800011F8013F013A00F8013FF9D140F24C1053
:1009900040F2A821231DC2F20000C2F20001002291
:1009A00001B0BDE8F04000F06BBD00BF70B50C4673
:1009B00040F24C11C2F2000189690546086EA4F1AB
:1009C000FD0313F1FC0F40F0040008663CBF01205A
:1009D00070BD40F2A820C2F2000003210170110C8A
:1009E0004170110A8170C2701CB10430214601F0BF
:1009F00087FC40F2A81640F24C1040F2A821C2F247
:100A00000006231DC2F20000C2F20001324600F0CF
:100A100037FD002C08BF70BDF11C6A1E11F8013FA4
:100A2000013C02F8013FF9D170BD00BF2DE9F04152
:100A300092B040F24C17C2F2000797F82D300C46E6
:100A40000DF108080546DE081AA140462246009628
:100A500001F0A8FB4046FFF7DBFBB869016E4FF0E1
:100A6000000C41F0040101664FF0000074B1002257
:100A700003E000BF3244A24208D2BB69596E0907A5
:100A8000F8D42978354430449966F3E7B969C1F858
:100A900070C0B9690A6E22F4817202320A66B969BD
:100AA0000A6A5207FCD50A6A42F004020A6212B0CE
:100AB000BDE8F0816C656E2025692C2057696420A3
:100AC00025692C20696E63722025690D0A000000DB
:100AD0004EF28020CEF2000008210160704700BF76
:100AE0004EF28020CEF2000010210160704700BF5E
:100AF0004EF28020CEF2000020210160704700BF3E
:100B00004EF28020CEF200004021016070470000CC
:100B100010B540F2B030C2F20000002101F0B0FA8E
:100B200000281CBF012010BD40F2B03440F66931EE
:100B3000C2F20004C0F200012046224601F0C6F9CC
:100B400040F67531C0F200012046224601F08EF9D0
:100B500040F2FC31C2F2000120464FF4807201F0F5
:100B600071F8002010BD00BF40F2AC30C2F20000AE
:100B70000160704740F2A830C2F200000160704787
:100B800040F2A83240F21813C2F20002C2F200038F
:100B90001068196888421CBF12681A60401A7047B2
:100BA00040F2B030C2F2000001F028BA80B540F245
:100BB000B030C2F2000001F0B9F94EF28020CEF25E
:100BC00000000121016080BD80B140F2005CC2F2F2
:100BD000000C0023CCF80030CB6889680260C0E9C3
:100BE00002134FF0113141600020704780B542F28E
:100BF0005050C0F200007921FFF71AFB40F200507C
:100C0000C2F2000001210160BDE880400020704771
:100C1000B0B5C8B1446840F20055C2F200050023E7
:100C2000B4F1113F2B601DD101292B6004D00229A2
:100C30001ED1C368012B1BD100232B60006800EB81
:100C4000C10040F8042CB0BD42F25050C0F2000088
:100C50009E21FFF7EDFA40F20050C2F200000121A0
:100C60000160B0BD42F25050C0F200009F2104E08C
:100C700042F25050C0F20000A121FFF7D9FA012042
:100C80002860B0BD10B5C8B1436840F20054C2F24C
:100C900000040022B3F1113F22601ED1012922601D
:100CA00004D002291FD1C268012A1CD1002222606F
:100CB000006800EBC10050F8040C10BD42F2505027
:100CC000C0F20000BC21FFF7B3FA40F20050C2F2BC
:100CD000000001210160002010BD42F25050C0F21E
:100CE0000000BD2104E042F25050C0F20000C021DB
:100CF000FFF79EFA01202060002010BD10B5C8B19A
:100D0000436840F20054C2F200040022B3F1113FE4
:100D100022601ED10129226004D002291FD1C2689D
:100D2000012A1CD100222260006800EBC10050F8AB
:100D3000080C10BD42F25050C0F20000D621FFF75F
:100D400077FA40F20050C2F2000001210160002059
:100D500010BD42F25050C0F20000D72104E042F230
:100D60005050C0F20000D921FFF762FA0120206044
:100D7000002010BDB0B5C8B1446840F20055C2F2C1
:100D800000050023B4F1113F2B601DD101292B6018
:100D900004D002291ED1C368012B1BD100232B6074
:100DA000006800EBC10040F8082CB0BD42F2505082
:100DB000C0F20000F221FFF73BFA40F20050C2F20D
:100DC000000001210160B0BD42F25050C0F20000AD
:100DD000F32104E042F25050C0F20000F521FFF789
:100DE00027FA01202860B0BD10B5A0B1426840F2DA
:100DF0000054C2F200040021B2F1113F216018D169
:100E000082682160012A1AD1216000684FF00041F8
:100E1000C0F81C1110BD42F29B50C0F200005B21D3
:100E2000FFF706FA40F20050C2F200000121016013
:100E300010BD42F29B50C0F200005C2104E042F27F
:100E40009B50C0F200005D21FFF7F2F90120206005
:100E500010BD00BF10B590B1426840F20054C2F21C
:100E600000040021B2F1113F216016D18268216097
:100E7000012A18D121600068C0F81C1110BD42F28F
:100E80009B50C0F200007621FFF7D2F940F20050EB
:100E9000C2F200000121016010BD42F29B50C0F27D
:100EA0000000772104E042F29B50C0F2000078215C
:100EB000FFF7BEF90120206010BD00BF10B5A8B13A
:100EC000436840F20054C2F200040022B3F1113F23
:100ED000226019D183682260012B1BD12260006837
:100EE000D0F828211143C0F8281110BD42F29B50C0
:100EF000C0F200009421FFF79BF940F20050C2F2CB
:100F000000000121016010BD42F29B50C0F20000C0
:100F1000952104E042F29B50C0F200009621FFF7B9
:100F200087F90120206010BD10B5B0B1436840F2D0
:100F30000054C2F200040022B3F1113F22601AD122
:100F400083682260012B1CD122600068D0F8282120
:100F500022EA0101C0F8281110BD42F29B50C0F2F4
:100F60000000B821FFF764F940F20050C2F200001F
:100F70000121016010BD42F29B50C0F20000B92176
:100F800004E042F29B50C0F20000BA21FFF750F992
:100F90000120206010BD00BF10B5A8B1436840F229
:100FA0000054C2F200040022B3F1113F226019D1B3
:100FB00083682260012B1BD122600068D0F82021B9
:100FC0001140C0F8201110BD42F29B50C0F2000049
:100FD000DB21FFF72DF940F20050C2F200000121A1
:100FE000016010BD42F29B50C0F20000DC2104E021
:100FF00042F29B50C0F20000DD21FFF719F90120F9
:10100000206010BD10B590B1426840F20054C2F2A9
:1010100000040021B2F1113F216017D182682160E4
:10102000012A19D121600068D0F8280110BD42F2D0
:101030009B50C0F20000FE21FFF7FAF840F200508A
:10104000C2F2000001210160002010BD42F29B505D
:10105000C0F20000FF2105E042F29B50C0F2000008
:101060004FF48071FFF7E4F801202060002010BDEC
:1010700010B590B1426840F20054C2F20004002161
:10108000B2F1113F216018D182682160012A1BD181
:1010900021600068D0F8200110BD42F29B50C0F2E0
:1010A000000040F21B11FFF7C3F840F20050C2F2FB
:1010B000000001210160002010BD42F29B50C0F2EF
:1010C00000004FF48E7105E042F29B50C0F2000028
:1010D00040F21D11FFF7ACF801202060002010BD88
:1010E00040F204020021C2F2000200BF535A8342C0
:1010F00004BF501870471031302904BF00207047DA
:10110000F4E700BF80B5B0B140F2005340F2040CE8
:10111000C2F200030022C2F2000C1A603CF8023056
:101120008B4217D01032302AF8D10021B1B90021FA
:101130004160022080BD42F2EB50C0F200008B21E2
:10114000FFF776F840F20050C2F200000121016082
:10115000002080BD0CEB02010029E8D04A68BDE800
:101160008040FFF731BD000070B5002800F082809C
:10117000046A40F20056C2F200060023B4F1223F96
:10118000336004BF052070BD41F2AD24C0F20004FD
:10119000C0E90E33C0E91033C464D1E902450362EB
:1011A00044624C7C836482618562002C08BF082401
:1011B0008D7C80F82D4080F82E504D690C7C456563
:1011C0000D7EC0E9003380F858504FF01135C0E96A
:1011D0000233C0E90433C5614FF0FF35497EA540B5
:1011E000ED43012980F82C40056345631ED1116E43
:1011F00041F06601116681699F228A668169002239
:101200008A6681698A6681690A6E22F480720A663A
:1012100081690A6E42F480720A6681694A6ED20759
:1012200008BFCA6E4A6ED20708BFC96EC2690021E4
:10123000B2F1113F31602CD18269036B31601367C9
:1012400082694FF4B075136E466A002E4FF6FF6642
:1012500003EA060308BF4FF480752B431366026B45
:101260008369C0E910118164016242630A20186435
:10127000084670BD42F23C60C0F20000A921FEF7B2
:10128000D7FF40F20050C2F20000012101600020AF
:1012900070BD42F23C60C0F200004FF4DA71FEF71C
:1012A000C7FF01203060002070BD00BF80B542F252
:1012B0003C60C0F2000040F21741FEF7B9FF40F277
:1012C0000050C2F200000121016080BD10B538B3AA
:1012D000C26940F20054C2F200040021B2F1113F91
:1012E00021602CD18269036B2160136782694FF4FE
:1012F000B073D2F860C0446A002C4FF6FF6408BF98
:101300004FF4807304EA0C0423431366C0E9101100
:1013100081640162016B826941630A20106410BD1F
:1013200042F23C60C0F2000040F2B311FEF780FFD1
:1013300040F20050C2F200000121016010BD42F2F3
:101340003C60C0F200004FF4DA71FEF771FF01203B
:10135000206010BD10B520B3C26940F20054C2F243
:1013600000040021B2F1113F21602AD1026A2160FC
:10137000B2F1223F04BF052010BD816942F22B0368
:101380008A6A1A438A624FF0223182690162116EC1
:1013900041F06201116680694FF00041C161002097
:1013A00010BD42F23C60C0F2000040F23511FEF781
:1013B0003FFF40F20050C2F2000001210160002016
:1013C00010BD42F23C60C0F200004FF49B71FEF78A
:1013D0002FFF01202060002010BD00BF10B5D0B14C
:1013E000C26940F20054C2F200040021B2F1113F80
:1013F000216020D1826C2160002A1CBF152010BD05
:1014000081690022CA6181690B6E23F002030B66B9
:101410000262002010BD42F23C60C0F2000040F2C7
:101420008311FEF705FF40F20050C2F200000121D7
:101430000160002010BD42F23C60C0F200004FF499
:10144000C271FEF7F5FE01202060002010BD00BF34
:101450008169026B0A6781694FF4B072D1F860C08C
:10146000436A002B4FF6FF6308BF4FF4807203EA14
:101470000C031A430A660021C0E910118164704709
:10148000B0B5E8B340F20055C2F2000500240029CF
:101490002C6045D0002B2C6049D0C4694FF0000C63
:1014A000B4F1113FC5F800C048D1046AC5F800C0C6
:1014B000B4F1223F1CBF0620B0BD856C002D1CBFBF
:1014C0001520B0BD85690024D5F81CE0EC61D0F88A
:1014D00018C0DCF8605005F00505042D3AD1D0E9BC
:1014E0000C54AC4236D1BEF1004F1CBF40F28340D9
:1014F000B0BD4FF00040CCF81C0040F28340B0BDBE
:1015000042F23C60C0F2000040F22621FEF790FE5D
:1015100040F20050C2F20000012101600020B0BD85
:1015200042F23C60C0F2000040F227210CE042F29F
:101530003C60C0F200004FF40A7105E042F23C60EA
:10154000C0F2000040F22921FEF772FE012028605F
:101550000020B0BD012400F138050EC5C0E91134EA
:1015600090F82D10DCF864204FF0000C12074FEAC1
:10157000D10240F190808469456BBEF1004F256730
:101580008469256E25F48075256613D181698A6A80
:1015900042F004028A6280694FF00041C16100207C
:1015A000B0BD00BF85692C6E24F480742C66002BBE
:1015B00000F08380846900BF256A6D07FCD5256A29
:1015C00045F00405256285692C6E44F480742C6610
:1015D00085696D6EED070ED0456C002DE7D08569ED
:1015E0006D6E33E0C5630569846915440561656EF8
:1015F0009B1AED07F0D185692029D5F86CC011D070
:10160000102909D00829EED1C56B002DEBD06C1C38
:10161000C46385F800C0E6E7C56B002DE3D025F86C
:1016200002CBDFE7C56B002DDDD045F804CBD9E751
:10163000856BB5F800C08569846BC5F868C0A518CE
:101640008563456C8469AD1A4564656E2D07A9D420
:10165000456C002DA6D0202908D01029E8D00829F3
:10166000E9D1856B95F800C0E5E700BF856BD5F83B
:1016700000C0E0E7856BB5F800C08469856BC4F8ED
:1016800068C0AC188463446C8569A41A44646C6EA9
:1016900024073FF570AF446C002C3FF46CAF202959
:1016A00007D01029E6D00829E7D1856B95F800C04E
:1016B000E3E7856BD5F800C0DFE781690A6E42F485
:1016C00080720A668169026B0A67002181640020CA
:1016D000B0BD00BF10B538B3C36940F20054C2F2C8
:1016E00000040022B3F1113F22602DD1836C2260EF
:1016F000002B1CBF152010BD90F82C2082B1531C6C
:10170000002200BF9C1E21FA04F404F00104013BF6
:10171000012B2244F6DC012A84BF40F2844010BD34
:10172000C9434163002010BD42F23C60C0F200009A
:101730004FF45F71FEF77CFD40F20050C2F20000F2
:1017400001210160002010BD42F23C60C0F20000A7
:1017500040F27D31FEF76CFD01202060002010BDBD
:1017600010B568B1C26940F20054C2F20004002111
:10177000B2F1113F216013D1406B2160C04310BD15
:1017800042F23C60C0F2000040F2BB31FEF750FD77
:1017900040F20050C2F2000001210160002010BDA3
:1017A00042F23C60C0F200004FF46F71FEF740FD62
:1017B00001202060002010BDB0B578B140F2005586
:1017C000C2F2000500232B60BAB1C4692B60B4F1EA
:1017D000113F19D12B60C0E91321B0BD42F23C602A
:1017E000C0F2000040F2F931FEF722FD40F2005055
:1017F000C2F2000001210160B0BD42F23C60C0F2C3
:10180000000040F2FA3105E042F23C60C0F2000014
:1018100040F2FB31FEF70CFD01202860B0BD00BF97
:1018200070B540F200550028C2F2000544D00446CD
:10183000D4E905120020013128606161166A116A3D
:10184000F30741EA0601116241D116F0440F00F09E
:101850008D80A06994F82D10D0F860C04CF480728F
:101860000266A069406EC00756D1CB0808E000BFF1
:10187000E0632069A56918442061686EC0074CD1F7
:10188000A0692029C26E11D0102909D00829F0D1F1
:10189000E06B0028EDD0451CE5630270E9E700BF6E
:1018A000E06B0028E5D020F8022BE1E7E06B002890
:1018B000DFD040F8042BDBE742F23C60C0F20000CE
:1018C00040F25641FEF7B4FC0120286070BD21684B
:1018D000A269236B0131D4E9105C21601367A1690F
:1018E0000A6E636A002B4FF6FF6302EA03024FF4AD
:1018F000B07308BF4FF480731A430A66A169C4E944
:101900001000A064486ED4E91330A5EB0C0240F23D
:101910007F41BDE8704018470022606CA369002831
:1019200049D0586E00071ED4CB080DE0A06B02888A
:10193000A069A56B8266E818A063606CA569C01AEF
:101940006064686E00070ED4606C60B1202907D017
:101950001029EBD00829EBD1A06B0278E8E700BF93
:10196000A06B0268E4E7A069C0F860C0300633D419
:10197000F00539D4B0073FD4B0064AD430070AD5B1
:101980006168D4E91023D4E913500131D21A61609F
:1019900040F28141A847B00458BF70BD6168D4E9E6
:1019A0001023D4E913C0D21A4B1C40F28A41636061
:1019B000BDE870406047216BD4E913501967A169F5
:1019C0008A6A22F004028A620021226CA1644FF428
:1019D0009061A8473006CBD5D4E913304FF491611C
:1019E00000229847F005C5D5D4E9133040F289416B
:1019F00000229847B007BFD5E168D4E91023D4E9A5
:101A000013500131D21AE16040F28741A847B00675
:101A1000B4D5A168D4E91023D4E913500131D21A06
:101A2000A16040F28241A8473007A9D4B3E7000083
:101A300040F234020021C2F2000200BF535A834236
:101A400004BF501870471C31702904BF0020704734
:101A5000F4E700BF80B5A0B140F2005340F2340C6F
:101A6000C2F200030022C2F2000C1A603CF80230FD
:101A70008B4215D01C32702AF8D10021A1B9022066
:101A800080BD42F28560C0F200008621FEF7D0FBE7
:101A900040F20050C2F2000001210160002080BD30
:101AA0000CEB02010029EAD04A68BDE88040FFF74C
:101AB0005BBB000080B5D0B140F20051C2F2000122
:101AC00000230B604FF01131C0E9072141F60D31C1
:101AD000C0F20001C0E90933C0E90B33C0E90D339E
:101AE000C1634164D36000F02FFB002080BD42F24F
:101AF000D460C0F200008B21FEF79AFB40F2005048
:101B0000C2F2000001210160002080BD80B542F2D8
:101B1000D460C0F2000040F2BB11FEF789FB40F236
:101B20000050C2F200000121016080BDB0B5D0B309
:101B300040F20055C2F20005002300292B6041D07D
:101B4000046A2B60B4F1113F42D1B2F1FF3F2B6028
:101B500044DDC4692B60A568E360C0E90912C26274
:101B6000C26905F01005D560C569AA68AA68EB606E
:101B700014070AD4C56AAB4207D2C569CC5C0133ED
:101B80006C60C569AD682D07F4D519444162816860
:101B9000C56AC469ED1A1944C562816002F010007B
:101BA000E0601846B0BD42F2D460C0F20000DA2115
:101BB000FEF73EFB40F20050C2F20000012101603E
:101BC0000020B0BD42F2D460C0F20000DB210AE088
:101BD00042F2D460C0F20000DC2104E042F2D460A2
:101BE000C0F20000DD21FEF723FB01202860002069
:101BF000B0BD00BF10B5C3699968D3F808C0002113
:101C00005FEA0C72D9600BD4C26A914208D2426A70
:101C1000C369525C01315A60C26992681207F3D5F8
:101C2000436A8268C46A0B44D0F81CE04362631ABA
:101C30000A44C36282600CF010020846CEF80C2001
:101C400010BD00BFB0B598B340F20055C2F2000518
:101C500000232B60E1B3046A2B60B4F1113F3ED145
:101C6000B2F1FF3F2B6041DDC4692B60A568E360E2
:101C7000C0E90C12C169826305F01002CA60C16933
:101C8000D1F808C0CB60826B22B1C1698C68E307D0
:101C900038D10023C168056BC4691D44D21A1944A8
:101CA00005638263C1600CF01000E0601846B0BDAF
:101CB00042F2D460C0F2000040F22D11FEF7B8FAF3
:101CC00040F20050C2F20000012101600020B0BDCE
:101CD00042F2D460C0F200004FF497710CE042F27F
:101CE000D460C0F2000040F22F1105E042F2D4604F
:101CF000C0F200004FF49871FEF79AFA01202860B4
:101D00000020B0BD002300BF0968026BA506D154B6
:101D100010D4210613D4610602D581690131816195
:101D2000826B01339342B5D2C1698C68E507EBD170
:101D3000B0E700BF0169013101612106EBD54169BE
:101D4000013141616106E8D4EAE700BF10B5C2691C
:101D50000021D2F808C0D160D0F838E0BEF1000F01
:101D600004D0C3699A68D1070FD10021036BC26800
:101D70000B44C4690363AEEB01030A448363C2608E
:101D80000CF010020846E26010BD0021D3F800E01C
:101D9000046B930604F801E010D4130613D4520622
:101DA00002D5826901328261D0F838E00131714593
:101DB000DCD2C3699A68D407E8D1D7E70369013355
:101DC00003611306EBD54369013343615206E8D43E
:101DD000EAE700BF10B588B1026A40F20054C2F2CF
:101DE00000040021B2F1113F216016D1C0692160C9
:101DF000816801F010010331C16010BD42F2D4606E
:101E0000C0F200004FF4B571FEF712FA40F2005034
:101E1000C2F200000121016010BD42F2D460C0F2A4
:101E2000000040F26B11FEF703FA0120206010BDA4
:101E300058B140F20051C2F200010022C0690A60AC
:101E40008068012121EA9000704780B542F2D46099
:101E5000C0F2000040F29511FEF7EAF940F200509E
:101E6000C2F2000001210160002080BDB0B578B150
:101E700040F20055C2F2000500232B60B1B1046AA4
:101E80002B60B4F1113F17D12B60C0E90F12B0BD28
:101E900042F22770C0F200006421FEF7C9F940F257
:101EA0000050C2F2000001210160B0BD42F2277073
:101EB000C0F20000652104E042F22770C0F2000089
:101EC0006621FEF7B5F901202860B0BDB0B578B144
:101ED00040F20055C2F2000500232B60B1B1046A44
:101EE0002B60B4F1113F17D12B60C0E91112B0BDC6
:101EF00042F22770C0F200008521FEF799F940F206
:101F00000050C2F2000001210160B0BD42F2277012
:101F1000C0F20000862104E042F22770C0F2000007
:101F20008721FEF785F901202860B0BDB0B520B348
:101F3000044640F20050C2F200000021E269016054
:101F40009568A8070DD0A06B10B12046FFF7FEFEE4
:101F5000A06B18B9616BD4E90F209047606801301D
:101F6000606068071FD5A16A002908BFB0BDE06A9C
:101F700088B12046FFF73EFE12E042F22770C0F221
:101F80000000A221FEF754F940F20050C2F2000016
:101F900001210160B0BDD4E911300022A26298474E
:101FA000206801302060B0BD10B568B1026A40F20F
:101FB0000054C2F200040021B2F1113F216012D19D
:101FC000C0692160C16010BD42F22770C0F20000FC
:101FD00040F22111FEF72CF940F20050C2F200004D
:101FE0000121016010BD42F22770C0F200004FF4E1
:101FF0009171FEF71DF90120206010BD10B570B180
:10200000026A40F20054C2F200040021B2F1113F12
:10201000216013D1C06921601021C16010BD42F25E
:102020002770C0F2000040F23F11FEF701F940F2C4
:102030000050C2F200000121016010BD42F2277081
:10204000C0F200004FF4A071FEF7F2F8012020600A
:1020500010BD000082681207FCD44160704700BFC9
:102060008168C907FCD00068C0B2704740F2A40183
:10207000C2F200010A88824218BF00210846704758
:1020800080B5B0B140F2A403C2F200031A8840F256
:10209000005CC2F2000C4FF0000E8A42CCF800E067
:1020A0001CBF022080BD5A681946BDE88040FFF77A
:1020B00001BD42F27F70C0F200008121FEF7B8F846
:1020C00040F20050C2F2000001210160002080BDFA
:1020D00010B5D8B140F20054C2F2000400222260D0
:1020E00011B3036A2260B3F1113F23D12260026869
:1020F00000F1040C0A609CE81C1001F1040E8EE84B
:102100001C1082694069C1E9050210BD42F2D87015
:10211000C0F200005C21FEF78BF840F20050C2F2E2
:1021200000000121016010BD42F2D870C0F2000031
:102130005D2104E042F2D870C0F200005E21FEF79B
:1021400077F80120206010BD10B590B1026A40F20E
:102150000054C2F200040021B2F1113F216016D1F7
:102160002160C0E90011C0E90211C0E904118161D8
:1021700010BD42F2D870C0F200007F21FEF758F87F
:1021800040F20050C2F200000121016010BD42F295
:10219000D870C0F200008021FEF74AF801202060CC
:1021A00010BD00000FB41CB5074B06AA7B4469465E
:1021B0000090059800F02DF90020694600F03CF9E8
:1021C0001CBC5DF814FB0000890200002DE9F04101
:1021D0000E460446002020622046E168884730B35E
:1021E000252805D0D4E901219047206A401CF2E758
:1021F000E168204600278847050018D0A5F1410076
:10220000192802D820354FF4006732462946204667
:102210002760FDF7A5FF40B1012804D0F61D26F088
:1022200007060836D8E7361DD6E72846DAE7206ADB
:10223000BDE8F08170B50C460546012A05D0287826
:10224000800600D5EA69002302E0012305E05B1C5B
:10225000934202D2E05C0028F9D1A869E618C01ABE
:10226000A861286A184428622846AFF3008004E079
:10227000D5E9012114F8010B9047B442F8D3284660
:10228000AFF3008070BD00002DE9F0410646002448
:1022900010687529314616A510D0AFF300800028CC
:1022A00002DA404213A507E031688A0701D512A57A
:1022B00002E0490704D511A5012401E0AFF3008035
:1022C00000210A2206F1240709E0B0FBF2FCB0FB72
:1022D000F2F302FB1C00303078541846491C0028E9
:1022E000F3D123462A463046BDE8F04100F032B82B
:1022F000000000002D0000002B0000002000000066
:102300004FF0000200B5134694469646203922BF8E
:10231000A0E80C50A0E80C50B1F12001BFF4F7AFD9
:10232000090728BFA0E80C5048BF0CC05DF804EBBB
:10233000890028BF40F8042B08BF704748BF20F829
:10234000022B11F0804F18BF00F8012B7047704727
:10235000704770472DE9F0470D469946924604466E
:1023600000F124080168880604D5E06921F0100115
:10237000216000E00120A84201DD471B00E00027AA
:10238000A1697A1902EB0900081AA0612078C00639
:1023900002D42046AFF30080002608E0D4E90121F2
:1023A0001AF806009047206A401C761C20624E45B1
:1023B000F4DB2078C0060AD52046AFF3008006E0A3
:1023C000D4E9012130209047206A401C2062381E49
:1023D000A7F10107F4DC07E0D4E9012118F80500B2
:1023E0009047206A401C2062281EA5F10105F3DCFD
:1023F0002046AFF300802078000602D50220BDE819
:10240000F0870120FBE7000001694A1C026108789F
:10241000704700B58FB0CDE9013100210591054924
:102420007944CDE9031011466846FFF7CFFE0FB09F
:1024300000BD0000E5FFFFFF0A6802F8010B0A601B
:10244000704710B5436913B1AFF3008001E0FFF7A7
:10245000F1FE012010BD127800F124010A70002263
:102460004A700122EDE711684FF0FF32E9E7754647
:1024700000F02CF8AE4605006946534620F00700F0
:10248000854618B020B5FDF7ABFEBDE820404FF003
:1024900000064FF000074FF000084FF0000BAC466D
:1024A000ACE8C009ACE8C009ACE8C009ACE8C009B8
:1024B00021F007018D46704710B50446AFF3008048
:1024C0002046BDE81040FDF763BE0000004870479D
:1024D000B800002001491820ABBEFEE7260002002C
:1024E00070470403010502060700545241494C207D
:1024F00056455253494F4E20312E300D0A000D0AD9
:1025000057656C636F6D6520746F2041524D204399
:102510006F72746578204D330D0A00424F4F544955
:102520004E472046524F4D204954434D0D0A00530B
:1025300077697463682025642025733A204C4544EC
:102540002025642025730D0A004F4646004F4E009B
:102550002E2E2F73646B5F776F726B737061636580
:102560002F7374616E64616C6F6E655F6273705F10
:10257000302F436F727465785F4D335F302F6C6915
:10258000627372632F6770696F5F76345F342F7385
:1025900072632F786770696F2E63002E2E2F73641D
:1025A0006B5F776F726B73706163652F7374616EAD
:1025B00064616C6F6E655F6273705F302F436F7222
:1025C0007465785F4D335F302F6C69627372632F6F
:1025D0006770696F5F76345F342F7372632F78672B
:1025E00070696F5F696E74722E63002E2E2F736494
:1025F0006B5F776F726B73706163652F7374616E5D
:1026000064616C6F6E655F6273705F302F436F72D1
:102610007465785F4D335F302F6C69627372632F1E
:102620006770696F5F76345F342F7372632F7867DA
:1026300070696F5F73696E69742E63002E2E2F733D
:10264000646B5F776F726B73706163652F73746116
:102650006E64616C6F6E655F6273705F302F436F85
:10266000727465785F4D335F302F6C69627372638B
:102670002F7370695F76345F342F7372632F7873B2
:1026800070692E63002E2E2F73646B5F776F726BF1
:1026900073706163652F7374616E64616C6F6E65D6
:1026A0005F6273705F302F436F727465785F4D3374
:1026B0005F302F6C69627372632F7370695F763459
:1026C0005F342F7372632F787370695F73696E69FB
:1026D000742E63002E2E2F73646B5F776F726B7393
:1026E000706163652F7374616E64616C6F6E655F9A
:1026F0006273705F302F436F727465785F4D335F24
:10270000302F6C69627372632F756172746C6974B7
:10271000655F76335F322F7372632F7875617274E1
:102720006C6974652E63002E2E2F73646B5F776F58
:10273000726B73706163652F7374616E64616C6F2B
:102740006E655F6273705F302F436F727465785F80
:102750004D335F302F6C69627372632F75617274D1
:102760006C6974655F76335F322F7372632F78758F
:102770006172746C6974655F696E74722E63002E89
:102780002E2F73646B5F776F726B73706163652F4D
:102790007374616E64616C6F6E655F6273705F30DD
:1027A0002F436F727465785F4D335F302F6C6962B1
:1027B0007372632F756172746C6974655F76335FD1
:1027C000322F7372632F78756172746C6974655FF0
:1027D00073696E69742E63002E2E2F73646B5F779E
:1027E0006F726B73706163652F7374616E64616C7B
:1027F0006F6E655F6273705F302F436F72746578C0
:102800005F4D335F302F6C69627372632F75617235
:10281000746C6974655F76335F322F7372632F78DF
:10282000756172746C6974655F73746174732E631F
:10283000000000005828000000000020B800000040
:102840002401000010290000B800002078140000C6
:10285000440100000000000040787D0100000000FD
:102860000000114001000000010000000100000014
:102870000000124001000000010000000200000002
:102880000000014000000000000000000000000007
:1028900000001340010000000000000001080200D9
:1028A00000000000000000000100000000000240E5
:1028B000010000000000000001080200000000000C
:1028C00000000000020000000000034001000000C2
:1028D00000000000010800000000000000000000EF
:1028E00003000000000000400100000000000000A4
:1028F00001080201000000000100000000000000CB
:102900000000104000E1000000000800010000008D
:04000005000001C531
:00000001FF
